:020000040800F2
:1000000038BF00204D030008A32C00082121000860
:10001000A12C000811070008B138000800000000FA
:100020000000000000000000000000008D02000839
:100030006507000800000000E9020008813300089D
:1000400067030008670300086703000867030008E8
:1000500067030008670300086703000867030008D8
:1000600067030008670300086703000867030008C8
:1000700067030008670300086703000867030008B8
:1000800067030008670300086703000867030008A8
:1000900015070008670300086703000867030008E6
:1000A000670300084134000867030008670300087D
:1000B0006703000867030008670300086703000878
:1000C0006703000867030008670300086703000868
:1000D0006703000867030008670300086703000858
:1000E0006703000867030008670300086703000848
:1000F00067030008670300084D3400086703000821
:100100006703000867030008670300086703000827
:100110006703000867030008670300086703000817
:100120006703000867030008670300086703000807
:1001300067030008670300086703000867030008F7
:1001400067030008670300086703000867030008E7
:1001500067030008670300086703000867030008D7
:1001600067030008670300086703000867030008C7
:100170006703000867030008670300080000000029
:1001800067030008670300086703000867030008A7
:100190006703000867030008670300086703000897
:1001A00000000000000000006703000800F002F8F3
:1001B00000F05CF80AA090E8000C82448344AAF1A5
:1001C0000107DA4501D100F051F8AFF2090EBAE8A3
:1001D0000F0013F0010F18BFFB1A43F0010318477B
:1001E000D05A0000F05A00000A444FF0000C10F8FA
:1001F000013B13F0070408BF10F8014B1D1108BFA5
:1002000010F8015B641E05D010F8016B641E01F844
:10021000016BF9D113F0080F1EBF10F8014BAD1C94
:100220000C1B09D16D1E58BF01F801CBFAD505E0B2
:1002300014F8016B01F8016B6D1EF9D59142D6D30C
:10024000704700000023002400250026103A28BF34
:1002500078C1FBD8520728BF30C148BF0B60704738
:100260001FB505F0CBFC1FBD10B510BD00F00CFA9A
:100270001146FFF7F5FF03F0A5FB00F03EFA03B4CB
:10028000FFF7F2FF03BC03F024FB00002C4B1968BE
:100290000868B0E8F04F80F30988BFF36F8F4FF024
:1002A000000080F3118870470000000008480068D3
:1002B000006880F308884FF0000080F3148862B66D
:1002C00061B6BFF34F8FBFF36F8F00DF00BF00BF7A
:1002D00008ED00E0DFF80C00016841F470010160F6
:1002E000704700BF88ED00E0EFF30980BFF36F8F28
:1002F000134B1A681EF0100F08BF20ED108A20E97A
:10030000F04F106009B44FF0500080F31188BFF334
:100310004F8FBFF36F8F04F08BFA4FF0000080F324
:10032000118809BC19680868B0E8F04F1EF0100F7A
:1003300008BFB0EC108A80F30988BFF36F8F704755
:10034000E4010020EFF30580704700000948804772
:1003500009480047FEE7FEE7FEE7FEE7FEE7FEE7A7
:10036000FEE7FEE7FEE7FEE704480549054A064BBF
:100370007047000031340008AD01000838B9002092
:1003800038BF002038BB002038BB0020704753EA3C
:10039000020C00F069802DE9F04B4FF00006002BB5
:1003A0001FBFB3FA83F503FA05F424FA05F65E409D
:1003B00012BF1643B2FA82F502FA05F4C5F1200520
:1003C0001EBF22FA05FC44EA0C04203556EA044C10
:1003D0004FEA144418BF641C4FF000084FF00009A6
:1003E000904271EB030C39D3002919BFB1FA81F7A0
:1003F00001FA07F6B0FA80F700FA07F6C7F120070E
:100400001EBF20FA07FC46EA0C062037B6FBF4FCB8
:10041000A7EB0507103F07F01F0BCBF120060CFAE6
:100420000BFB2CFA06F644BFB3460026202FA4BFD0
:100430005E464FF0000B5BEA060C08BF4FF0010B65
:1004400019EB0B09ABFB027C48EB0608C01B06FB53
:1004500002CC0BFB03CC71EB0C01C1E70B4602464F
:1004600041464846BDE8F08B13B54FF000004FF011
:100470000001AFF30080BDE81C4070470FB4044991
:1004800010B503AA029800F07DF810BC5DF814FBCB
:10049000D0010020032A40F2308010F0030C00F05D
:1004A000158011F8013BBCF1020F624498BF11F8AE
:1004B00001CB00F8013B38BF11F8013BA2F1040267
:1004C00098BF00F801CB38BF00F8013B11F00303DF
:1004D00000F06A80083AC0F0088051F8043B083AFE
:1004E00051F804CBA0E80810F5E7121D5CBF51F8E5
:1004F000043B40F8043BAFF30080D20724BF11F85F
:10050000013B11F801CB48BF11F8012B24BF00F8C3
:10051000013B00F801CB48BF00F8012B704702F007
:10052000FF0343EA032242EA024200F071B84FF0AF
:10053000000200B5134694469646203922BFA0E833
:100540000C50A0E80C50B1F12001BFF4F7AF09073F
:1005500028BFA0E80C5048BF0CC05DF804EB890030
:1005600028BF40F8042B08BF704748BF20F8022B73
:1005700011F0804F18BF00F8012B7047704770478B
:1005800070477047074B70B50D467B4400F065F827
:100590000446284600F074F810B14FF0FF3070BDEB
:1005A000204670BD1F34000010B5203AC0F00B800B
:1005B000B1E81850203AA0E81850B1E81850A0E867
:1005C0001850BFF4F5AF5FEA027C24BFB1E81850C1
:1005D000A0E8185044BF18C918C0BDE810405FEA31
:1005E000827C24BF51F8043B40F8043B08BF7047AD
:1005F000D20728BF31F8023B48BF11F8012B28BFB2
:1006000020F8023B48BF00F8012B70474FF0000272
:100610000429C0F0128010F0030C3FF48AAFCCF133
:10062000040CBCF1020F18BF00F8012BA8BF20F882
:10063000022BA1EB0C01FFF77CBF5FEAC17C24BF5A
:1006400000F8012B00F8012B48BF00F8012B704780
:1006500001694A1C02610878704700B58FB0CDE986
:1006600001310021059105497944CDE90310114676
:10067000684600F02EF80FB000BD0000E5FFFFFF58
:10068000007B00F080007047754600F03DF8AE46F4
:1006900005006946534620F00700854618B020B58E
:1006A000FFF762FEBDE820404FF000064FF0000764
:1006B0004FF000084FF0000B21F00701AC46ACE80A
:1006C000C009ACE8C009ACE8C009ACE8C0098D4677
:1006D00070472DE9F04106460024D6E90170F5681F
:1006E0008046304603E04146B847641C3046A84780
:1006F0000028F8D12046BDE8F0810446AFF3008021
:100700002046FFF7BCFD000000487047D4B8002029
:10071000FEE70000014800F09AB90000BC0A002082
:1007200030B40E4C0025A560E56008252561AD01BB
:1007300025600B4C050A25706070080AA070E170F6
:10074000100A20716271180AA071E37122460349F0
:1007500030BC002301F16C0000F019B8500A0020F1
:10076000C8010020704772B6FEE790F82020012AE9
:1007700007D0022A05D0416A41F48021416201205C
:100780007047006842690A43426100207047F0B533
:1007900090F820500468A468012D05D0022D03D0E4
:1007A000416A41F4802153E014F0406F01D1E5002B
:1007B0004BD5C4F30164022C03D9416A41F4000112
:1007C00046E00125A5401D608D684FF4C0739DB1C2
:1007D000CE6835434E6845EAC605066803EB041744
:1007E000F5514FF4C275076805EB04150E697E518B
:1007F000097D012905D009E00E88CD6845EA4655F6
:10080000EBE701684E5946F480764E511179D2F8E3
:1008100005504FF4C67641EA0525016806EB04163B
:100820008D511178D2F801204FF4C47541EA0221AC
:10083000026805EB04155151006803EB041142589E
:1008400042F0010242500020F0BD416A41F4001123
:1008500041620120F0BD000010B590F82020012A6F
:1008600007D0022A05D0416A41F48021416201206B
:1008700010BD3B48D0F8002242F00102C0F800222F
:10088000D0F8002222F47C52C0F80022D0F80022D6
:100890004B6A42EA0322C0F800220A7D02F01F03DD
:1008A00001229A40D0F81C329343C0F81C32CB6925
:1008B000B3B9D0F80C329343C0F80C328C894B6832
:1008C00064F31F434C6900EBC404C4F840320C8944
:1008D0000B6864F31F434C6900EBC404C4F8443252
:1008E000CB69012B16D1D0F80C321343C0F80C326F
:1008F0000C884B6864F31F434C6900EBC404C4F8D4
:1009000040320C89CB6864F31F434C6900EBC4048C
:10091000C4F844328B69002BD0F804320ED0134354
:10092000C0F804320B69002BD0F8143208D01343FE
:10093000C0F81432096A012904D008E09343EFE7B4
:100940009343F5E7D0F81C121143C0F81C12D0F8FD
:10095000001221F00101C0F80012002010BD0000BB
:1009600000640040704730B590F82040012C05D05D
:10097000022C03D0416A41F480215DE00468002923
:1009800055D02469A40754D04FF4D874056804EBFB
:1009900001142D5915F00405956005682D594ED0A8
:1009A000ED08556005682C5904F00204D4604FF43A
:1009B000DA74056804EB01142D5905F00F05156173
:1009C00005682D59C5F30725956105682C59240C38
:1009D00054614FF4DC72046802EB0112A4581C70DD
:1009E0000468A458240A5C700468A458240C9C7001
:1009F0000468A258120EDA704FF4DE72046802EB3B
:100A00000112A4581C710468A458240A5C7104687B
:100A1000A458240C9C710468A258120EDA71006864
:100A200081B1016941F020010161002030BDE4681D
:100A3000A8E7416A41F400114162012030BD6D0D0B
:100A40001560AFE7C16841F02001C160EDE72DE915
:100A5000F05F0546006800244669D0F80490876876
:100A6000D0F80CB0D0F810A0D0F81880F10748D01A
:100A7000F90714D001218160B80703D5284600F09A
:100A80005CFA0CE0780702D54FF4006407E0380701
:100A900002D54FF4805402E0284600F04DFAF805E4
:100AA00016D529684FF480708860B80503D52846AC
:100AB00000F045FA0CE0780502D544F4005407E054
:100AC000380502D544F4804402E0284600F036FAA6
:100AD000F80316D529684FF480308860B80303D531
:100AE000284600F02EFA0CE0780302D544F40044C6
:100AF00007E0380302D544F4803402E0284600F0D1
:100B00001FFA300707D55FEACB6004D529681020AB
:100B100044F40074C86070074FF0080707D55FEA17
:100B20000B7004D52868C760284600F057F9B00755
:100B300006D52868C068800702D0284600F050F922
:100B4000700607D55FEACA6004D52968102044F40E
:100B500080640861B00607D55FEA0A7004D528688A
:100B60000761284600F0B8F9F00606D52868006944
:100B7000800702D0284600F0B0F9B00308D55FEA3C
:100B8000C96005D5296810204860284600F0A6F9FC
:100B9000F00307D55FEA097004D528684760284646
:100BA00000F0D0F9300446D55FEA497040D5F00531
:100BB00004D55FEAC87001D044F00104B00504D543
:100BC0005FEA887001D544F00204700504D55FEA3D
:100BD000487001D544F00404300529D518F0700F91
:100BE00026D008F07000402815D006DC102809D067
:100BF00020280AD0302816D10AE050280ED06028CC
:100C000011D10EE044F008040DE044F010040AE0B5
:100C100044F0200407E044F0400404E044F0800481
:100C200001E044F480742868816921F070018161D9
:100C3000296804204860002C05D0686A2043686257
:100C40002846FFF78FFEBDE8F09F70B5040003D083
:100C500094F8200010B104E0012070BD204600F09F
:100C600081F82068016841F00101016000F090FA0C
:100C70000546052604E000F08BFA401B0A2811D82F
:100C800020684068C007F6D02068016821F00201A2
:100C9000016000F07DFA05460BE000F079FA401B98
:100CA0000A2806D9606A40F40030606284F8206047
:100CB000D2E7206840688007EFD4207E01282068B2
:100CC00001683DD021F080010160607E012820682C
:100CD000016838D021F040010160A07E0128206821
:100CE000016833D021F020010160E07E01282068F6
:100CF00001682ED041F010010160207F012820689A
:100D0000016829D021F008010160607F0128206876
:100D1000016824D021F004010160D4E902010843F4
:100D2000D4E90412114308436168491E084321684D
:100D3000C86100206062012084F82000002070BD9E
:100D400041F08001C0E741F04001C5E741F02001DA
:100D5000CAE721F01001CFE741F00801D4E741F0E4
:100D60000401D9E710B586B0044614216846FFF7A0
:100D7000DEFB17492068884227D116480021026807
:100D800042F000720260006800F0007005901148A7
:100D90001038026842F0080202600068022200F087
:100DA000080005900320CDE90210CDE900020920DA
:100DB00004906946084800F0C7F800220521142075
:100DC00000F07EFA142000F06DFA06B010BD0000AD
:100DD0000064004040380240000C024070470000B0
:100DE0007CB5384A364B002102F18800FFF7BBFD85
:100DF0003448344D324C00683435103CA0F20120A8
:100E0000062817D8C0B2207000EB400205EB820024
:100E10004188418135F82210018129490B885BBA4C
:100E200025F822304A8852BA42808A8852BA828093
:100E300089798171207828BB607880B9224AE0687E
:100E4000298822F81010401C4FF47A71E060884223
:100E500024D1104602F03EFD608001206070B4F99C
:100E6000021040F6B450CDE90001207800EB4000BC
:100E700005EB80000168426883681448006801F04F
:100E800011FFA0802078012808D10E48403090E85A
:100E90000E000F48006802F0AFF9E0800D480068CE
:100EA00001280CD1B4F90A30B4F90820B4F90610BD
:100EB000B4F9040002B0BDE87040FFF731BC7CBD5E
:100EC000C0010020340A00206402002064010020D8
:100ED00060010020A00100207047704770470000AB
:100EE00070B5044690F82000012804D0606A40F4F0
:100EF0000020606218E0022084F820002068016869
:100F000021F00101016000F043F905460EE000BF49
:100F100000F03EF9401B0A2808D9606A40F400300E
:100F20006062052084F82000012070BD20684068C0
:100F3000C007EDD1606270BD704770477047704761
:100F400070477047704700002DE9F84FDFF8F8A1AF
:100F50000022012403254FF00F090AF1040BAAF126
:100F6000040E00BF0B6804FA02F63340B34270D19E
:100F70000F7907F00307012F01D0022F16D18768E0
:100F80004FEA420805FA08FC27EA0C07D1F80CC022
:100F90000CFA08FC4CEA070CC0F808C04768B743D5
:100FA0000E79C6F3001696403E4346600E79F6432E
:100FB000B6070AD0C7684FEA420C05FA0CF6B743E9
:100FC0008E6806FA0CF63E43C6600E7906F00306FC
:100FD000022E10D1D60800EB8608D8F820605707FB
:100FE0004FEAD76C09FA0CF7BE430F6907FA0CF702
:100FF0003743C8F8207006684FEA420C05FA0CF730
:10100000BE430F7907F0030707FA0CF73743076071
:101010004E6816F4403F1CD04C4E376847F480476A
:101020003760366822F0030706F480460096484E83
:1010300007EB060CDCF8086897073F0F09FA07F87A
:1010400026EA0806DFF80C81404503D14FF000087E
:1010500041E072E0DFF80081404502D14FF0010825
:1010600039E0DFF8F880404502D14FF0020832E065
:10107000DFF8EC80404502D14FF003082BE0DFF8A9
:10108000E480404502D14FF0040824E0DFF8D88026
:10109000404502D14FF005081DE0DFF8D080404503
:1010A00002D14FF0060816E0DFF8C480404502D1B7
:1010B0004FF007080FE0DFF8BC80404502D14FF049
:1010C000080808E0DFF8B080404502D14FF0090879
:1010D00001E04FF00A0808FA07F848EA0608CCF8D9
:1010E0000888DAF800605746D1F804C09E435FEAEA
:1010F000CC2C00D51E433E60DBF800605F46D1F883
:1011000004C09E435FEA8C2C00D51E433E60DEF88F
:1011100000607746D1F804C09E435FEA8C3C00D55E
:101120001E433E60084F083F3E68D1F804C09E430E
:101130005FEACC3C00D51E433E60521C102AFFF4EF
:1011400011AFBDE8F88F0000083C01404438024070
:10115000003001400000024000040240000802404C
:10116000000C02400010024000140240001802402F
:10117000001C024000200240002402400069084098
:1011800000D0012070470AB1816170470904FBE774
:101190000148806870470000D4010020024881683F
:1011A0000278114481607047D40100200B4810B5CB
:1011B000016841F400710160016841F480610160DF
:1011C000016841F480710160032000F099F80F205C
:1011D00000F006F800F04AF8002010BD003C024084
:1011E00030B505461C4887B00024016841F0010174
:1011F0000160006806A900F00100009001A800F05D
:101200002BF900F059F915494000B0FBF1F11548F0
:10121000134A491E026040F2E732C0E90324C0E9E4
:101220000114846100F0B4FB040012D10D4800F0F9
:1012300009FC04000DD1192000F034F8102D07D25C
:1012400000222946192000F03BF80748056000E01D
:10125000012407B0204630BD4438024040420F0010
:1012600000000140B80B0020D80100200C4882B0DB
:10127000016841F480410160006800F48040009002
:101280000748001F016841F080510160006800229A
:1012900000F0805000900F21901E02B000F010B8B6
:1012A00044380240002809DB00F01F020121914070
:1012B0004009800000F1E020C0F8001170470000F4
:1012C000F0B40E4B1B680C46C3F30223C3F10705B1
:1012D000042D00D90425191D072901D2002300E09F
:1012E000DB1E012606FA05F1491E214099409E4069
:1012F000761E16403143F0BC02F0DBBA0CED00E084
:10130000064900F0070208684FF6FF03184040EA5C
:101310000220034A10430860704700000CED00E013
:101320000000FA052DE9F0470E46050065D0DFF80C
:101330001481D8F80000F7B200F00F00B04207D2D5
:1013400088F80070D8F8000000F00F00B04254D1C7
:1013500028683D4C810712D5400703D5206840F42A
:10136000E05020602878000703D5206840F46040F2
:1013700020602068A96820F0F000084320602878E9
:10138000C0072DD0304968680839012812D00228DA
:1013900013D0032811D00968890700292DDA2168A4
:1013A00021F0030101432160FFF7F2FE814641F283
:1013B000883A0EE009688903EFE709688901ECE7DC
:1013C000FFF7E6FEA0EB0901514502D90320BDE875
:1013D000F0872068696800F00C00B0EB810FEFD156
:1013E000D8F80010404601F00F01B14207D907704C
:1013F000006800F00F00B04201D00120E7E7287834
:10140000400705D52068E96820F4E05008432060D3
:101410002878000706D52068296920F4604040EA52
:10142000C100206000F058F82168084AC1F3031198
:10143000515CC8400649086006480068FFF7D0FEC6
:101440000020C4E7003C024008380240745C0008F9
:10145000E0010020D80100200F2202600C4A13682E
:1014600003F003034360136803F0F0038360136821
:1014700003F4E053C36012684FF4E05303EAD2026E
:1014800002610448006800F00F0008607047000027
:1014900008380240003C02400448054900680968D9
:1014A000044AC1F38221515CC8407047E00100202A
:1014B00008380240845C000804480549006809684F
:1014C000044AC1F34231515CC8407047E00100203A
:1014D00008380240845C0008154810B5006810F018
:1014E0000C02144813D01449042A0FD0082A0ED134
:1014F0000F4C241F2268236802F03F025B0207D5CD
:101500002068C0F38810A0FB010106E0084610BD6A
:101510002168C1F38811A1FB00010023FEF737FF0A
:101520002168C1F30141491C4900B0FBF1F010BD35
:10153000083802400024F400001BB7002DE9F84FE2
:1015400004006ED02078DFF84C93C007A9F10405A1
:101550004AD009F104000168C1F38101012908D0D2
:101560000068C0F3810002280AD1D9F800004002C7
:1015700006D52868800337D560680028E1D033E0BD
:101580006068B0F5803F10D0B0F5A02F286810D06B
:1015900020F480302860286820F48020286060686B
:1015A000A8B1FFF7F5FD06460DE0286840F480304D
:1015B000F4E740F480202860F7E700BFFFF7E8FD7C
:1015C000801B642873D828688003F7D50CE0FFF7E8
:1015D000DFFD064605E000BFFFF7DAFD801B64284B
:1015E000F0D828688003F7D42078DFF8AC82800731
:1015F0004FF0000A3ED5A748001D016811F00C0FFE
:1016000008D00068C0F3810002280BD1D9F800008F
:10161000400207D42868800716D5E068012800D169
:1016200012E033E1E068B8B10120C8F80000FFF72C
:10163000AFFD064605E000BFFFF7AAFD801B0228AC
:10164000C0D828688007F7D52868216920F0F800FD
:1016500040EAC10028600DE0C8F800A0FFF798FD3F
:10166000064604E0FFF794FD801B02281FD8286877
:101670008007F7D42078000722D5864F8748616914
:10168000703771B101210160FFF782FD064604E069
:10169000FFF77EFD801B022809D838688007F7D540
:1016A0000EE0C0F800A0FFF773FD064605E082E0FB
:1016B000FFF76EFD801B02287DD838688007F7D4BD
:1016C0002078400768D5DFF8CCB100270BF13C0B40
:1016D000DBF80000C0000BD4DBF8001041F08051B3
:1016E000CBF80010DBF80000012700F080500090DC
:1016F0006B4E3068C00510D4306840F480703060A4
:10170000FFF746FD009005E0FFF742FD0099401A03
:10171000022850D83068C005F6D55E4EA0686C36F9
:1017200001280FD00528306810D020F0010030606B
:10173000306820F004003060A068B8B1FFF728FDE1
:1017400000900FE0306840F00100F4E740F0040042
:101750003060F7E7FFF71CFD0099411A41F288302D
:10176000814266D830688007F4D50EE0FFF710FD9F
:10177000009007E0FFF70CFD0099411A41F2883014
:10178000814256D830688007F4D42FB1DBF80010BE
:1017900021F08051CBF80010A069C8B33D49091D64
:1017A0000968C1F3810102294AD00228504607D0B6
:1017B000C8F8600000E03CE0FFF7EAFC04463BE0CC
:1017C0004746C8F86000FFF7E3FC064605E000BFA7
:1017D000FFF7DEFC801B02282BD828688001F7D495
:1017E000D4E907010843A16A2E4A490802EB0141E6
:1017F000626A41EA8211084394F82C1040EA0161C0
:10180000C9F8001001203866FFF7C2FC044606E064
:101810003EE000BFFFF7BCFC001B022809D8286887
:101820008001F7D534E000BFFFF7B2FC001B0228AF
:1018300002D90320BDE8F88F28688001F4D427E09E
:101840000128F7D0D9F80000E26900F48001914244
:101850001CD1226A00F03F01914217D147F6C071B6
:10186000626A0140B1EB821F10D1A26A4FF0FF33D0
:1018700000F4403103EB5202B1EB024F06D194F871
:101880002C1000F07060B0EB016F01D00120D1E7A7
:101890000020CFE70438024000004742800E474254
:1018A000007000400000FFFF7047704710B590F8CF
:1018B0003C20012A22D0012280F83C20CA688C6892
:1018C00022F4407222434C6822F4806222430C6866
:1018D00022F4006222430C6922F4805222434C69B4
:1018E00022F400522243C969002322F480420A43B1
:1018F00001684A6480F83C30002010BD022010BD11
:1019000070B590F83C20012A32D0012480F83C4088
:10191000022280F83D2003685A689D6822F0700614
:101920000A6832435A60134B02689A4214D0B2F1EB
:10193000804F11D0104B9A420ED0104B9A420BD0D0
:101940000F4B9A4208D00F4B9A4205D00E4B9A4249
:1019500002D00E4B9A4204D1496825F08003194306
:10196000916080F83D40002180F83C10084670BD31
:10197000022070BD0000014000040040000800404B
:10198000000C0040000401400040014000180040ED
:1019900010B5040003D094F83D0010B107E0012019
:1019A00010BD002084F83C00204600F01FF8022003
:1019B00084F83D00211D206801F04EFD012084F8CF
:1019C000460084F83E0084F83F0084F8400084F824
:1019D000410084F8420084F8430084F8440084F80D
:1019E000450084F83D00002010BD000008B50068E7
:1019F0001149884209D11148016841F00401016090
:101A0000006800F00400009008BD0D498842FBD139
:101A10000A48001D016841F00201016000680022CF
:101A200000F00200009005212E20FFF749FCBDE8E0
:101A300008402E20FFF736BC000800404038024026
:101A40000004014090F83D10012901D001207047A9
:101A5000022180F83D100168CA6842F00102CA60A4
:101A600000681149884214D0B0F1804F11D00F495D
:101A700088420ED00E4988420BD00E49884208D0C9
:101A80000D49884205D00D49884202D00C49884250
:101A900004D1816801F00701062903D0016841F0F3
:101AA0000101016000207047000001400004004077
:101AB00000080040000C00400004014000400140CC
:101AC0000018004070B5044690F83C00002501283D
:101AD00017D0012684F83C60022084F83D0020687D
:101AE000826822F0770222F47F42826008685028E0
:101AF00038D00DDC20284FD005DC90B3102811D150
:101B00004AE0022070BD302846D040280AD13BE090
:101B100060282FD070280DD0B0F5805F03D0B0F5CD
:101B2000005F12D0012584F83D60002084F83C005D
:101B3000284670BDCB68D1E90121206801F0FDFC89
:101B40002068816841F0770109E0CB68D1E9012183
:101B5000206801F0F2FC2068816841F480418160D6
:101B6000E1E719E0CA684968206801F0BBFD50212F
:101B7000206806E0CA684968206801F0C4FD602159
:101B8000206801F0E4FCCEE7CA684968206801F0EB
:101B9000A9FD40212068F4E7226801461046F0E7DD
:101BA000704770B50446006801694FF00005C943ED
:101BB000890715D4C168C943890711D4E91E016199
:101BC00001202077206880698007204602D0FFF737
:101BD000E7FF04E000F0DAF8204600F06CF9257722
:101BE00020680169C943490717D4C168C943490737
:101BF00013D46FF00401016102202077206880690E
:101C000010F4407F204602D0FFF7CAFF04E000F046
:101C1000BDF8204600F04FF9257720680169C943D7
:101C2000090716D4C168C943090712D46FF0080127
:101C30000161042020772068C0698007204602D017
:101C4000FFF7AEFF04E000F0A1F8204600F033F902
:101C5000257720680169C943C90617D4C168C943FB
:101C6000C90613D46FF010010161082020772068A5
:101C7000C06910F4407F204602D0FFF791FF04E0D6
:101C800000F084F8204600F016F9257720680169F5
:101C9000C943C90708D1C168C943C90704D1891E0E
:101CA0000161204600F06CF920680169C94309060A
:101CB00009D4C168C943090605D46FF080010161E8
:101CC0002046FFF7F1FD20680169C943490609D4A0
:101CD000C168C943490605D46FF04001016120463F
:101CE00000F058F920680169C94389060BD4C1681E
:101CF000C943890607D46FF0200101612046BDE881
:101D00007040FFF7D2BD70BD10B586B004461421F7
:101D10006846FEF70CFC2368174C00211748022286
:101D2000A34210D1036843F008030360006800F089
:101D300008000590D0020090CDE90121CDE9031201
:101D400069460F4813E00F4CA34212D1036843F4D5
:101D500080730360006800F4807005900420009098
:101D6000CDE901210320CDE9031069460648FFF7BC
:101D7000EBF806B010BD000000080040303802400B
:101D8000000C02400004014000200240704770B582
:101D9000044690F83C0000260D4601280FD0012093
:101DA00084F83C006AB1042A1DD0082A2FD00C2ADE
:101DB0003FD00126002084F83C00304670BD022050
:101DC00070BD206801F0CCFB2068816941F00801FA
:101DD00081612068816921F0040181612068816945
:101DE0002A69114311E0206801F0EAFB206881694B
:101DF00041F4006181612068816921F48061816121
:101E0000206881692A6941EA02218161D2E720685C
:101E100001F00CFC2068C16941F00801C161206833
:101E2000C16921F00401C1612068C1692A691143B7
:101E300011E0206801F02EFC2068C16941F40061C6
:101E4000C1612068C16921F48061C1612068C169F4
:101E50002A6941EA0221C161ACE710B5040003D050
:101E600094F83D0010B107E0012010BD002084F877
:101E70003C00204600F01EF8022084F83D00211DA1
:101E8000206801F0E9FA012084F8460084F83E0059
:101E900084F83F0084F8400084F8410084F8420050
:101EA00084F8430084F8440084F8450084F83D0039
:101EB000002010BD7047704710B50446022249B19A
:101EC00004290ED0082913D094F84100012816D017
:101ED000012010BD94F83E000128F9D184F83E207D
:101EE0000FE094F83F000128F2D184F83F2008E089
:101EF00094F840000128EBD184F8402001E084F8F8
:101F000041200122206801F00BFB16492068164A87
:101F1000884201D0904203D1436C43F400434364B0
:101F20002068884213D0B0F1804F10D00F4988420A
:101F30000DD00F4988420AD00E49884207D09042FE
:101F400005D00D49884202D00C49884204D18168ED
:101F500001F00701062903D0016841F00101016089
:101F6000002010BD000001400004014000040040BA
:101F700000080040000C00400040014000180040F4
:101F800000680349884201D1FFF708B97047000093
:101F900000000140704770B5040004D094F83D0083
:101FA000002510B106E0012070BD84F83C502046A9
:101FB00000F022F8242084F83D002068C16821F454
:101FC0000051C160204601F0B1FB2068016921F495
:101FD000904101612068416921F02A014161206836
:101FE000C16841F40051C1602564202084F83D009F
:101FF00084F83E00002070BD10B586B00446142160
:102000006846FEF794FA13492068884220D11248A6
:102010000021026842F400320260006800F40030DF
:1020200005900D481038026842F00802026000680E
:1020300000F008000590602000900220CDE9010129
:10204000032003900720049069460448FEF77CFFB4
:1020500006B010BD0044004040380240000C024071
:102060002DE9F84F044690F83E009A4616460D4674
:10207000202853D1FDB1F6B194F83C0001284DD091
:10208000012084F83C0000272764222084F83E00C9
:102090002763FFF77DF8A6858146E685A0684FF4A3
:1020A0008058404501D1206940B12E465FF00005BF
:1020B00084F83C7027E00120BDE8F88F0026F7E7A0
:1020C0004B46002220212046CDF800A001F0B4FBB1
:1020D00008B10320F0E726B1A06840451BD038B115
:1020E00008E020684068C0F3080025F8020B07E00C
:1020F000206980B12068406800F07F0006F8010B7D
:10210000E08D401EE085E08D0028D9D1202084F8A4
:102110003E000020D0E720684068EFE70220CBE7D0
:10212000FEE700002DED108B9FEDF6EB9FEDF7DB4A
:10213000F84CDFF8E4A3F94D40F2715B9FEDF89B9A
:102140009FEDF9CB40F2DC589FEDF9BB9FEDFA8B88
:102150009FEDFBAB0421FC48FFF710F8012870D17C
:10216000FA4EB078F8B99FEDFA0B206880ED060BB7
:10217000F948006880ED060BDAF80010C1F834B0B9
:10218000B0EE080A1E2002F011F90122114628467D
:10219000FEF7F9FF01221103F048FEF7F4FF4FF4B8
:1021A000FA7002F091FA0120B070F17851B99FED08
:1021B000EC0BE949096881ED060B9FEDEB0B2168FB
:1021C00081ED060B8146F0707068012809D0022865
:1021D00007D0032805D0042803D0052801D00628FD
:1021E00011D1B0680128FBD19FEDD90BDA48006806
:1021F00080ED060B642002F067FAD448017842298A
:1022000002D043297DD0F7E0412101700022012155
:102210002846FEF7B8FF9FEDD60B206880ED060B31
:102220004FF4FA6002F050FA706920B1012809D029
:1022300002280BD00DE09FEDD00B206880ED060B3F
:1022400007E0E8E1206880ED069B02E0206880ED71
:1022500006EB4FF4FA6002F037FADAF8001040F2B9
:10226000EF605746486340F6B83002F02DFA7069C7
:1022700020B1012819D002282ED045E0C6F81490CC
:10228000206880ED06CB4FF4FA6002F01DFA0122BF
:1022900011462846FEF777FF404602F015FA9FEDFB
:1022A000B60B206880ED060B2EE002209FEDB40BEC
:1022B0007061206880ED060B4FF4FA6002F004FABA
:1022C000012211462846FEF75EFF404602F0FCF967
:1022D000206880ED069B17E003209FEDAB0B70613B
:1022E000206880ED060B4FF4FA6002F0EDF9012250
:1022F00011462846FEF747FF404602F0E5F9206800
:1023000000E017E080ED06EB4FF47A7002F0DCF9A4
:102310007068062805D03968C1F834B04FF4FA6007
:102320005BE08D48006880ED06DB4FF4FA7002F048
:10233000CBF95FE041210170002201212846FEF720
:1023400022FF9FED930B206880ED060B4FF4FA609F
:1023500002F0BAF99FED90FB206840F28D4157469C
:1023600080ED06FBDAF800004163306920B10128F6
:1023700007D002280AD010E0B1EE000AC6F810908B
:1023800008E002209FED860A306103E003209FED04
:10239000850A30611E2002F009F840F6C41002F0F0
:1023A00093F99FED810B206880ED060B4FF4FA70D6
:1023B00002F08AF9012211462846FEF7E4FE404663
:1023C00002F082F9206880ED06FB7168062919D0B9
:1023D0003968C1F834B040F6B83002F075F99FEDB5
:1023E000620B206880ED060B9FED5D0B5A4800687C
:1023F00080ED060B0020B060706807280DD008281B
:102400007ED084E280ED06EB5348006880ED06DB69
:10241000396840F2EF604863ECE7B0680128F0D11A
:102420009FED4B0BDFF83091D9F8000080ED060BE3
:102430004FF4FA7002F048F97069DDE0022802D02A
:10244000012839D0D1E0002201212846FEF79BFE69
:102450009FED4D0B206880ED060B404602F034F9ED
:10246000206880ED06EB404602F02EF9DAF8001005
:102470005746C1F834B040F6B83002F025F920686C
:1024800080ED06BB404602F01FF9012211462846A6
:10249000FEF779FE404602F017F9206880ED069BB2
:1024A000404602F011F9396840F2EF6048634FF49A
:1024B000FA6002F009F998E0002201212846FEF7AF
:1024C00062FE20689FED2E0B80ED060B404602F069
:1024D000FBF820689FED36FB80ED06FB404602F0DE
:1024E000F3F8DAF800105746C1F834B040F6B830C7
:1024F00002F0EAF820689FED300B80ED060B5FE0FC
:1025000082E00000000000000070D74000000000E2
:102510000040AF4064010020E40A00200020024097
:10252000000000000094D14000000000001AC340E9
:102530000000000000A7D04000000000006AD84062
:102540000000000040C7D640000402408001002087
:10255000000000000000000060010020001C02409C
:102560000000000000409F40000000000040BF400D
:10257000000000000070B74000000000004CCD409B
:102580000000000080E6CF40000000004055D6402B
:10259000000000000088B3400000000080FEC94039
:1025A0000000F8420000744300000000802AC4408C
:1025B000000000000064D94000000000007DD7400A
:1025C000404602F081F8012211462846FEF7DBFD65
:1025D000404602F079F8206880ED06FB404602F0A4
:1025E00073F8396840F2EF6048634FF4FA6002F024
:1025F0006BF87069401E70610128BFF61FAFD9F8F3
:10260000000080ED06DB08E1B068012803D1F06925
:1026100010B101287ED07AE1BF481FED330B00686E
:1026200080ED060B4FF4FA7002F04EF80022012103
:102630002846FEF7A8FD206880ED06CB404602F054
:1026400043F8206880ED069B404602F03DF8DAF83A
:1026500000105746C1F834B040F6B839484602F089
:1026600033F8206880ED06BB404602F02DF80122C9
:1026700011462846FEF787FD404602F025F82068FF
:1026800080ED069B404602F01FF8396840F28D400D
:102690004863B1EE000A1E2001F088FE4FF4FA6094
:1026A00002F012F83069B5E002283ED10022012183
:1026B0002846FEF768FD1FED440B206880ED060BF1
:1026C000404602F001F8206880ED068B404601F09C
:1026D000FBFFDAF800104FF4B460574648634846F1
:1026E00001F0F2FF206880ED06AB404601F0ECFF00
:1026F000012211462846FEF746FD4FF4FA6001F02C
:10270000E3FF206880ED068B404601F0DDFF40F2DC
:102710008D4000E084E0396848631FED5F0A1E20A9
:1027200001F044FE484601F0CFFF306901283BD15B
:10273000002201212846FEF726FD1FED650B2068CB
:1027400080ED060B404601F0BFFF206880ED068B50
:10275000404601F0B9FFDAF800105746C1F834B02E
:10276000484601F0B1FF206880ED06AB404601F01D
:10277000ABFF012211462846FEF705FD4FF4FA6033
:1027800001F0A2FF206880ED068B404601F09CFF1F
:10279000386840F28D4141631FED7E0A1E2001F032
:1027A00005FE484601F090FF306980BB0022012100
:1027B0002846FEF7E8FC1FED840B2068474680EDB5
:1027C000060B404601F080FF206880ED068B3846FE
:1027D00001F07AFFDAF8000040F23C5141634846CC
:1027E00001F072FF206880ED06AB384601F06CFF07
:1027F000012211462846FEF7C6FC4FF4FA6001F0AC
:1028000063FF206880ED068B384601F05DFF30697C
:10281000401E30610028BFF647AF0020B06076E070
:102820001FEDB50B3C48006880ED060B4FF47A7045
:1028300001F04AFF002201212846FEF7A4FC20688F
:1028400080ED06CB404601F03FFF206880ED069BFF
:10285000404601F039FFDAF800005F465646C0F8FE
:1028600034B040F6B83001F02FFF206880ED06BB91
:10287000404601F029FF012211462846FEF783FC5D
:10288000404601F021FF206880ED069B404601F0A4
:102890001BFF316840F25D404863B3EE040A1E201E
:1028A00001F084FD4FF4FA69484601F00DFF002263
:1028B0004FF480511948FEF766FC20689FED180B15
:1028C00080ED060B41F2883001F0FEFE206880EDBD
:1028D000068B484601F0F8FE3068476341F28830C5
:1028E00001F0F2FE206880ED06AB484601F0ECFEF8
:1028F000012211030948FEF746FC40F6B83001F00A
:10290000E3FE2068002180ED068B074881600120EE
:1029100001F07EF81EE4000060010020001C02406F
:102920000000000080A6C0408001002010B51948BA
:102930008AB01749016003210024C0E901144FF453
:102940001021C0E903414FF400114161047644763F
:102950008476C47604774477FEF777F908B1FDF7FB
:1029600002FF0120CDE906400394089004940E2054
:102970000594099000940194029469460548FDF776
:102980006BFF02210348FDF7F0FE0AB010BD000006
:1029900000640040BC0A002010B50B4A00210B481F
:1029A00001F072F80A4C084A00216062243209489A
:1029B00001F06AF8044AA06248320021064801F09A
:1029C00063F8E06210BD0000085C000825210008E3
:1029D0008001002045330008B93200082DE9F04796
:1029E00086B014216846FDF7A2FD3E480026016826
:1029F00041F001010160016801F0010105910168E8
:102A000041F008010160016801F0080105910168C9
:102A100041F480710160016801F4807105910168E1
:102A200041F004010160016801F0040105910168B1
:102A300041F080010160016801F0800105910168A9
:102A400041F002010160016801F002010591016895
:102A500041F0400101600068DFF88C8000F0400028
:102A60000122059011464046FEF78DFB0122DFF85A
:102A70007C90170339464846FEF785FBDFF870A0C7
:102A8000002202215046FEF77EFB01250224CDE9FB
:102A900002540095694640460195FEF755FACDE986
:102AA0000075CDE9025469464846FEF74DFA042008
:102AB000CDE90006694602940E48FEF745FACDE9D5
:102AC00000450294694650460394FEF73DFA200300
:102AD000CDE90006694602940748FEF735FA06B0CC
:102AE000BDE8F0873038024000200240001C024060
:102AF0000018024000040240000C024010B58EB0E5
:102B000000240794089409940A940B941C216846A5
:102B10000C94FDF70CFD20481E4901605321C0E9CB
:102B2000011444F61F61C0E9031480218161FEF79E
:102B30002FFF08B1FDF717FE4FF48050079007A94B
:102B40001548FEF7BFFF08B1FDF70DFE1248FFF76D
:102B500084F908B1FDF707FE0B940BA90E480C94FD
:102B6000FEF7CEFE08B1FDF7FEFD6020009040F2BA
:102B70007150CDE901040022694607480494FFF72B
:102B800006F908B1FDF7EFFD0348FFF7BDF80EB0F9
:102B900010BD000000080040E40A002010B596B007
:102BA00000240F9410941194129413941C2108A8DB
:102BB0001494FDF7BCFC20216846FDF7B8FC2948B9
:102BC00027490160A721C0E9011444F61F61C0E94B
:102BD000031444618461FEF7DBFE08B1FDF7C3FD19
:102BE0004FF480500F900FA91E48FEF76BFF08B1FD
:102BF000FDF7B9FD1B48FFF730F908B1FDF7B3FD4C
:102C0000139413A917481494FEF77AFE08B1FDF740
:102C1000AAFD702008904FF4FA70099002200A90E3
:102C20000C940D940C2208A90E940E48FFF7AFF8EF
:102C300008B1FDF798FD00944FF40050CDE9044031
:102C4000029401940394694606480794FEF72EFE09
:102C500008B1FDF788FD0348FFF756F816B010BD20
:102C6000000401402C0B00200C4810B50A490160FB
:102C70004FF4E1314160002181600C22C160C0E964
:102C800004128161C161FFF786F9002803D0BDE815
:102C90001040FDF768BD10BD00440040740B0020DB
:102CA000FEE7FEE72DE9F04704462DED088B884648
:102CB000994608B2DDE9105A02F02FFDC4E912016D
:102CC00006460F460FFA89F002F027FDC4E9140109
:102CD0004FEA284002F021FDC4E90867FE4EC4E92E
:102CE0002A01307820B9504602F017FDC4E93001BE
:102CF0000120307041F284769FEDF8AB9FEDF99B97
:102D00009FEDFA8BB54247D194ED300B94ED3E1B0D
:102D100053EC102B51EC110B02F086FE53EC192BE7
:102D200002F04CFE0ED294ED301B94ED3E0B53ECB2
:102D3000112B51EC100B02F077FE41EC100B53EC11
:102D40001A2B23E094ED300B94ED3E1B53EC102B2B
:102D500051EC110B02F068FE53EC182B02F0F4FC5E
:102D60000ED294ED300B94ED3E1B53EC102B51EC36
:102D7000110B02F059FE53EC1A2B02F093FA09E002
:102D800094ED301B94ED3E0B53EC112B51EC100BDA
:102D900002F04AFEC4E9400194ED141B94ED120BBD
:102DA00053EC112B51EC100B02F03EFE53EC192B9F
:102DB00002F004FE03D2D4F8C800401E11E094EDE6
:102DC000141B94ED120B53EC112B51EC100B02F071
:102DD0002BFE53EC182B02F0B7FC04D2D4F8C80039
:102DE000401CC4F8C80040F6B4579FEDC2BBBD42BA
:102DF00021D154F8C80F400302F08FFC14ED201BC2
:102E000053EC112B02F04EFA14ED021B53EC112B74
:102E100002F00AFE94ED0E1B53EC112B02F004FE9F
:102E20009FEDB61B53EC112B02F0CAFC41EC100BCA
:102E30009FEDB41B6FE0A5F5E060D63856D0B542E3
:102E400019D154F8C80F400302F067FC14ED201BA1
:102E500053EC112B02F026FA14ED021B53EC112B4C
:102E600002F0E2FD94ED0E1B53EC112B02F0DCFDA1
:102E7000C4E90201C83C94ED340B94ED061B53ECFD
:102E8000102B51EC110B02F0CFFD41EC100B84ED37
:102E90000A0B94ED361B53EC112B02F055FC0BD8AA
:102EA00094ED360B51EC100B02F0F0F994ED0A1B87
:102EB00053EC112B02F048FC94ED0A0B94ED0E1B21
:102EC00053EC102B51EC110B02F0ECF941EC100B10
:102ED00084ED0E0B94ED381B53EC112B02F06EFDBC
:102EE00094ED380B1ED284ED0E0B2EE054F8C80F73
:102EF000400302F012FC14ED201B53EC112B02F0E6
:102F0000D1F914ED021B53EC112B02F08DFD41ECB5
:102F1000100B9FED7E1B51EC100B53EC112B02F0AC
:102F200075FAA5E751EC100B02F0B0F994ED0E1B09
:102F300053EC112B02F042FD07D294ED380B51EC0B
:102F4000100B02F0A3F9C4E90E0194ED0C0B94ED03
:102F50000A8B53EC102B51EC180B02F065FD41EC81
:102F6000100B84ED100B94ED041B53EC102B51EC63
:102F7000110B02F025FC94ED0E0B94ED021B41ECBD
:102F8000190B53EC102B51EC110B02F019FC94EDC2
:102F9000000B41EC1A0B53EC182B51EC100B02F008
:102FA0000FFC53EC1A2B02F07DF953EC192B02F0B5
:102FB00079F9C4E9160184ED0C8BC4E91E0194ED86
:102FC0002A1B84ED201B94ED3C0B51EC110B53ECB0
:102FD000102B02F0F3FC0BD294ED160B53EC1B2BD1
:102FE00051EC100B02F0EAFC02D294ED3C0B20E015
:102FF00094ED3C0B51EC100B02F048F994ED201BC2
:1030000053EC112B02F0DAFC11D294ED160B53ECB9
:103010001B2B51EC100B02F097FB08D294ED3C0BEC
:1030200051EC100B02F032F9C4E91E0103E094EDFB
:10303000160B84ED1E0B94ED201B94ED1E0B53EC30
:10304000112B51EC100B02F0EFFCC4E9220194EDBE
:10305000240B94ED261B53EC102B51EC110B02F0BA
:1030600021F941EC100B84ED260B94ED3A1B53EC47
:10307000112B02F0A3FC94ED3A0B02D284ED260B47
:1030800012E051EC100B02F001F994ED261B53EC09
:10309000112B02F093FC07D294ED3A0B51EC100B7C
:1030A00002F0F4F8C4E9260194ED240B94ED228B90
:1030B00053EC102B51EC180B02F0B6FC41EC100B4A
:1030C000B54284ED280B94ED1C1B53EC102B51ECF6
:1030D000110B4AD11EE00000680100200000000032
:1030E0000000C040000000000000B04000000000F0
:1030F0000000B0C000000000000000000000000060
:103100000060674000000000000EAC4000000000BE
:103110000000424002F054FB94ED261B94ED1A0B84
:1031200041EC190B53EC112B51EC100B02F048FB46
:1031300094ED180B41EC1A0B53EC182B51EC100BBF
:1031400002F03EFB53EC1A2B02F0ACF853EC192BB7
:1031500002F0A8F841EC100B00F0F6FB00F0F4FBD5
:1031600000F0F2FB00F0F0FB21E002F029FB94ED0F
:10317000261B94ED1A0B41EC190B53EC112B51EC5F
:10318000100B02F01DFB94ED180B41EC1A0B53ECE5
:10319000182B51EC100B02F013FB53EC1A2B02F01E
:1031A00081F853EC192B02F07DF841EC100B51EC37
:1031B000100B02F083FAC4F8B80094ED220BBD4264
:1031C00084ED240B06D1014641F2707081420BDC84
:1031D000404207E0B54209D1014647F230508142F2
:1031E00002DC4042814201DAC4F8B800D4F8B800E9
:1031F000BDEC088BBDE8F08710B504462DED068BBD
:10320000081402F08AFA41EC100B84ED120B84EDE5
:10321000080B94ED061B53EC102B51EC110B02F034
:1032200003FC41EC180B84ED0A8B94ED0E0B53EC70
:10323000182B51EC100B02F035F841EC1A0B51EC45
:10324000180B84ED0EAB94ED0C0B53EC102B02F02D
:10325000EBFB41EC100B84ED100B94ED041B53ECD5
:10326000102B51EC110B02F0ABFA94ED020B41EC78
:10327000190B53EC1A2B51EC100B02F0A1FA94ED40
:10328000000B41EC1A0B53EC182B51EC100B02F015
:1032900097FA53EC1A2B02F005F853EC192B02F0B5
:1032A00001F802F00BFA00B2A4F8500084ED0C8B88
:1032B000BDEC068B10BD0000DFF878801E4E1F4C61
:1032C0004FF40055012704214046FDF757FF012820
:1032D00000D12762A068C8B9E068012816D1294644
:1032E0003046FDF74BFF012810D129463046FDF747
:1032F00045FF01280AD16068401CC4E901074FF46A
:10330000FA7001F0E1F90EA0FDF7B8F82946304651
:10331000FDF734FF012805D029463046FDF72EFF82
:1033200018B103E00020E06000E0E760012000F059
:103330006FFBC8E700040240000C0240800100203F
:10334000310000000C4C4E26651E4FF0420843270A
:103350002670FF23012208490848FEF781FE2078E5
:10336000302804D0312803D185F8008000E02F7088
:10337000012000F04DFBEBE781010020740B0020E1
:1033800010B54FF0E020006901F0CAFD012803D01C
:10339000BDE8104001F0F8BA10BD000030B593B0A0
:1033A00030216846FDF7C3F814210CA8FDF7BFF8DB
:1033B0001D480025016841F080510160006800F05F
:1033C000805011901948016841F440410160006843
:1033D000022400F44040119001200090000401906C
:1033E0008001CDE9064006200890A820CDE9090417
:1033F00004200B906846FEF7A1F808B172B6FEE70C
:103400000CA90F2081E831004FF4A0500F904FF429
:103410008050109005210CA8FDF784FF002801D0F2
:1034200072B6FEE713B030BD403802400070004075
:103430000248016841F470010160704788ED00E0C6
:103440000148FEF7AEBB0000B80B00200148FEF7B4
:10345000A8BB00002C0B0020F0B50268254C264DBF
:10346000264E274F274B4FF0804CA04209D0604595
:1034700007D0A84205D0B04203D0B84201D098424C
:1034800004D122F0700E4A6842EA0E02A0421BD01C
:10349000604519D0A84217D0B04215D0B84213D019
:1034A000984211D0184DA8420ED0184DA8420BD00A
:1034B000174DA84208D0174DA84205D0164DA84276
:1034C00002D0164DA84203D122F44075CA682A439F
:1034D0004D6922F080022A4302608A68C2620A684B
:1034E0008262A04201D0984201D1096901630121A1
:1034F0004161F0BD000001400004004000080040B0
:10350000000C004000040140004001400044014024
:103510000048014000180040001C0040002000400E
:1035200010B501F01F030121046A99408C43046225
:10353000016A9A401143016210BD10B5846842EAE5
:10354000032224F47F440A432243826010BD826830
:1035500022F070020A4342F00701816070470000C8
:10356000F0B5026A22F001020262036A42688469CD
:10357000124E24F073050C682C4323F002058B686F
:103580002B430D4DA84201D0B04205D123F00807CE
:10359000CB683B4323F00403A84201D0B04205D1DD
:1035A0004D6922F4407215438A692A43426084615E
:1035B000496841630362F0BD00000140000401401E
:1035C000F0B5026A22F010020262026A436884695E
:1035D0000D6824F4E64444EA05248D6822F02002B4
:1035E00042EA05120F4D104EA84201D0B04206D15A
:1035F000CF6822F0800242EA071222F04002A8427D
:1036000001D0B04207D14D6923F4406343EA8503FA
:103610008D6943EA8503436084614968816302627E
:10362000F0BD00000000014000040140F0B5026A56
:1036300022F480720262026A4368C46922F4007252
:1036400024F073050C68124E2C438D6842EA052263
:103650000E4DA84201D0B04206D1CF6822F40062DC
:1036600042EA072222F48062A84201D0B04207D188
:103670004D6923F4405343EA05138D6943EA05136A
:103680004360C4614968C1630262F0BD000001404B
:103690000004014030B5026A22F480520262046ADA
:1036A0004268C3690D6823F4E64343EA05238D6845
:1036B00024F4005444EA0534084DA84202D0084DD1
:1036C000A84204D14D6922F4804242EA8512426048
:1036D000C36149680164046230BD0000000001401C
:1036E0000004014010B5036A046A24F00104046276
:1036F000846924F0F00444EA021423F00A020A4325
:103700008461026210BD10B5036A23F010030362E6
:103710008369046A23F4704343EA023224F0A0036D
:1037200043EA01118261016210BD000070B50446D8
:1037300000680169E26821F4405111430161216987
:10374000A068E26908436169114308432168CA68B7
:1037500049F20C639A430243CA6020684169A26936
:1037600021F440711143416131492068884202D0FF
:103770003049884202D1FDF79FFE01E0FDF78CFE43
:10378000E2690023192164253226B2F5004F6268F0
:1037900028D0A0FB0101930F9200FCF7F8FD014631
:1037A000B0FBF5F06FF01802504301EB800006EB20
:1037B0000010B0FBF5F000F0F002B1FBF5F002EB09
:1037C0000012B1FBF5F06FF01803584301EB8000D5
:1037D00006EB0010B0FBF5F000F00F00216810447C
:1037E000886070BDA0FB010192185B41FCF7CFFD22
:1037F0000146B0FBF5F00201B1FBF5F06FF01803E4
:10380000584301EB800006EBC000B0FBF5F000F080
:10381000F80002EB4002B1FBF5F0584301EB8000E9
:1038200006EBC000B0FBF5F000F00700D6E70000A3
:1038300000100140001401402DE9F0419846174660
:103840000E460446069D27E0681C25D02DB1FDF7E5
:103850009FFCA0EB0800A8421ED920680C3050E85D
:10386000001F21F4D07140E80012002AF5D1206831
:10387000143050E8001F21F0010140E80012002A36
:10388000F5D1202084F83D0084F83E00002084F823
:103890003C000320BDE8F0812068006836EA0000A3
:1038A00004D00020B842CFD00020F3E70120F9E790
:1038B000FEE70907090E002804DB00F1E02080F88C
:1038C0000014704700F00F0000F1E02080F8141D94
:1038D00070477047F0B500234C1E13E00022CE1A4B
:1038E000761E0CE000EB420C30F91250BCF902706D
:1038F000BD4203DD20F81270ACF80250521C964213
:10390000F0DC5B1CA342E9DB00250122B0F90030AA
:1039100014460FE000EB440630F9147036F9026CDF
:10392000B74201D1521C04E0AA4201DD15463346DC
:103930000122641C8C42EDDBAA4203DD00EB410056
:1039400030F9023C1846F0BD10B5154C2DED068B34
:10395000B0EE40AAF0EE60AA94ED049B9FED110B2F
:1039600053EC192B51EC100B02F05EF894ED020BA6
:1039700053EC102B01F024FF41EC180B53EC192BE6
:1039800051EC1A0B01F01CFF53EC182B01F08AFCD0
:1039900041EC100B84ED020BBDEC068B10BD00005A
:1039A00068010020000000000000F03F04490A68A0
:1039B0005206FCD5024AC1B2121D116070470000C8
:1039C00000440040FDF7F2FBFFF7E8FCFFF706F8C4
:1039D000FEF7ACFFFFF748F9FFF7E0F8FFF78EF8C6
:1039E0000848FDF77DFA00210748FEF765FA0C212B
:1039F0000648FEF761FA00F019F8FEF7CDFF00F077
:103A000027F8FEE7BC0A0020E40A00202C0B002067
:103A100010B5EFF3058111B16FF0050403E0002448
:103A200008B100F051FE204610BD0000EFF3058004
:103A300010B16FF0050070470448016811B14FF0F4
:103A4000FF307047012101600020704734020020E0
:103A500010B5EFF3058010B16FF0050010BD0848F8
:103A60000168012902D04FF0FF3010BD054A002146
:103A700082F8141D0221016000F08EFE002010BDAE
:103A8000340200200BE000E02DE9FF410B464FF02F
:103A90000005EFF30581039549BB40B3802718214A
:103AA00000244AB3166806B1344696691EB1314601
:103AB000761E382E02D21679F60703D0002004B005
:103AC000BDE8F081566906B1B708D2F808C0BCF16C
:103AD000000F0DD0D5685C2D18D312693AB136B1FC
:103AE0008DE806103A46214601F0EFF903900DE00B
:103AF000D6685EB912694AB903AACDE90012BAB212
:103B0000214601F0B5F9012800D003950398D6E7C6
:103B10002DE9F041134C0F460546E6682068001D6C
:103B200000F09EFC681C07D137B12168BDE8F04168
:103B30000D48091D00F0E4BC20683544B5424560DD
:103B4000216805D2A06BBDE8F041091D00F0C0BCA2
:103B5000606B091D00F0BCFCA06A854200D2A56222
:103B6000BDE8F081E4010020F01000202DE9F041D3
:103B7000054600F0D1FC2D4CA068401CA0602068D8
:103B80002B4F10B1606930B32BE02560A06801288D
:103B900027D1002606EB860007EB800000F08AFCA8
:103BA000761C382EF6D3234800F084FC21481430CC
:103BB00000F080FC1F48283000F07CFC1D483C30A1
:103BC00000F078FC1B48503000F074FC194860632A
:103BD0001430A06305E02068E96AC06A884200D812
:103BE0002560606A401C60626864E86A21698842F6
:103BF00000D9206100EB800007EB8000291D00F058
:103C00007FFC00F0A9FC606900280CD02068E96AFC
:103C1000C06A884207D208494FF080500860BFF35D
:103C20004F8FBFF36F8FBDE8F0810000E4010020EB
:103C3000400C0020A010002004ED00E038B500F09A
:103C40006BFC104C2068C8B90F4800F033FC0E48DC
:103C5000143000F02FFC0C48E060143020610A4B57
:103C60000020F03B009003F1500210210A2000F0E8
:103C7000A1FE206010B105A100F0F0FCBDE83840C5
:103C800000F06ABC20020020F4110020546D725133
:103C90000000000030B4026C0B46002A0BD0C16853
:103CA0001144C1608468A14201D30168C16030BC85
:103CB0001846FCF7EFBB30BC70472DE9F041856B2F
:103CC000174604460026026C82B1C7B1E068FCF7D3
:103CD000E1FBE168206C091AE1602268914202D29E
:103CE000A168081AE060022F16D017E02068A8B972
:103CF000A06801F08DF906460020A0600EE0606823
:103D0000FCF7C8FB216C606808446060A1688842C9
:103D100004D32068606001E005B16D1E6D1CA563D1
:103D20003046BDE8F08110B5044690F8590058B10E
:103D300001280CD002280FD0502080F31188BFF347
:103D40004F8FBFF36F8FFEE7206B00F019FC20460A
:103D5000BDE8104000F014BC10BD000010484FF446
:103D60002041420706D0C01D0D4920F00700411A2E
:103D7000C1F520410B4A00230144C2E90003083980
:103D8000183A21F0070111604B600B600B1AC0E973
:103D9000001393604FF00040536050617047000083
:103DA000D418002050020020144E154CA6F29C4757
:103DB0004FF08058DFF84C9012E000BF00F0ACFBF1
:103DC000F068C568281D00F04BFBA068401EA0608D
:103DD0006068401E606000F0BFFB2846FFF7A3FF4D
:103DE00060680028EAD138680128F9D9C9F800804C
:103DF000BFF34F8FBFF36F8FF2E70000DC1000209E
:103E0000E401002004ED00E070B51D46049C51B1B2
:103E1000C4F80020C4E90F010121204600F0FEFD96
:103E200084F84C5070BD2460F4E700002DE9F05F89
:103E30008846DDE90B941546834691009A460A9E12
:103E4000A522206BFCF76BFB6FF00301206B01EBED
:103E50008501084420F00707780707D0502080F339
:103E60001188BFF34F8FBFF36F8FFEE70025B8F1C6
:103E7000000F0FD05FF00000221818F8001082F831
:103E8000341018F8001011B1401C1028F4D384F835
:103E9000435001E084F83450382E00D33726E662D0
:103EA000C4E91365201D00F010FB04F1180000F0B8
:103EB0000CFB2461C6F138006462A061656584F87A
:103EC000585052465946384600F05AFA2060B9F127
:103ED000000F01D0C9F80040BDE8F09F30B511498E
:103EE00000E011460A688242FBD34B685C188442AA
:103EF00003D1406818444860084643681C1894423F
:103F000009D1084C183C2468A24209D052681A44CE
:103F100042600A6812680260814200D0086030BDC9
:103F20000460F9E75002002070B5002441600B4D99
:103F30000061914206D8D11A8269914206D2011DD0
:103F4000286907E09A4203D2994201D3012403E091
:103F5000011DE86800F0BCFA204670BD2002002078
:103F600010B5044600F0D8FAA06B28B15FF0000449
:103F700000F0F2FA204610BD0124F9E730B589B00F
:103F80003C4D6EE00498002806DADDE90601059A4A
:103F900090470498002864DB069C606910B1201DDE
:103FA00000F05EFA03A800F0D7F8024604980A2849
:103FB00057D2DFE800F00505052D334A05052D33FE
:103FC00094F8280040F0010084F828000599A069C1
:103FD000059B01442046FFF7A7FF68B3216A2046EE
:103FE000884794F8280040073BD5002000900598AA
:103FF000A169002342181946204601F013F9D8B9E7
:10400000502080F31188BFF34F8FBFF36F8FFEE70F
:1040100014F8280F20F00100207022E094F8280006
:1040200040F0010084F828000598A06128B18118AB
:1040300013462046FFF778FF13E0502080F31188E5
:10404000BFF34F8FBFF36F8FFEE794F8280081070F
:1040500003D4204600F094FA03E020F0010084F835
:104060002800002204A9286800F02CFE002889D12D
:1040700009B030BD200200202DE9FC410F46054665
:1040800000F0CEFB01A800F067F80446019818B1D3
:1040900001F036F8BDE8FC81254EAFB1306900680B
:1040A000D0B30027291B3A46306800F0EBFA01F044
:1040B00027F80028EED11F494FF080500860BFF369
:1040C0004F8FBFF36F8FE5E7A542EBD801F018F8EB
:1040D000F0682746C068C468201D00F0C1F994F854
:1040E0002800410719D5A0692B4641193A462046B8
:1040F000FFF71AFFA8B100200346014600902A46A8
:10410000204601F08FF860B9502080F31188BFF38A
:104110004F8FBFF36F8FFEE707E020F0010084F8B8
:104120002800216A20468847B4E70127BAE7000043
:104130002002002004ED00E00648416B096829B127
:10414000416BC968C9684968816270474FF0FF31A7
:10415000FAE70000E401002070B5054600F0EEFE2D
:10416000064E0446B068844203D200F009F80120EC
:1041700000E0002028602046B46070BD20020020CE
:10418000F8B5194D20E0C068C4680668201D00F02D
:1041900067F9216A2046884794F82800400713D51C
:1041A000A0693044B04206D924616060211DE868EE
:1041B00000F08EF908E000200346014600903246E8
:1041C000204601F02FF838B1E86801680029DAD1FB
:1041D0002969C5E90310F8BD502080F31188BFF3A9
:1041E0004F8FBFF36F8FFEE7200200200848406822
:1041F000401C4FF0500080F3118804D0BFF34F8F64
:10420000BFF36F8FFEE7BFF34F8FBFF36F8FFEE7F4
:1042100058020020074CE068016841B1C0680021E5
:10422000D0F80000FFF728FFFFF7A8FEF3E7012111
:104230000020F7E7200200202DE9F041044600F0BD
:104240006BF994F9455004F1240609E0606A48B11D
:10425000304600F01DFF08B100F064FA6D1E6DB22B
:10426000002DF3DC4FF0FF3684F8456000F074F960
:1042700000F052F994F9445004F1100709E0206964
:1042800048B1384600F004FF08B100F04BFA6D1E4B
:104290006DB2002DF3DC84F84460BDE8F04100F01D
:1042A0005BB900002DE9F0410546002700F0B8FA9F
:1042B000324E306808B9FFF751FD706905424ED1A2
:1042C000C5B3083568070ED005F00700C0F1080037
:1042D0000544680707D0502080F31188BFF34F8F43
:1042E000BFF36F8FFEE72DB37068854237D8234840
:1042F000183001460C6801E020460C466168A9426E
:1043000002D221680029F7D131688C4227D0076892
:104310002168016060680837411B10290FD96019B6
:10432000420708D0502080F31188BFF34F8FBFF3AE
:104330006F8FFEE713E041606560FFF7CFFD6168B6
:104340007068401A7060B268904200D2B0607069C4
:1043500001430020C4E90001F068401CF06000F057
:10436000CFFE780707D0502080F31188BFF34F8F1E
:10437000BFF36F8FFEE73846BDE8F08138020020BA
:1043800010B5031F4FF080741C601B1F21F001014A
:104390001960191F044B0B6014390A60091F6FF074
:1043A000020244380A6010BDED41000870B5F1EE1C
:1043B0000A0A2DED028B06469FED268A264C274DD4
:1043C00000EE208A94ED060AF8EEC00AF4EEC80A60
:1043D000F1EE10FA07D91AE03044A06129680864A8
:1043E000322000F071F9A06900EE100AB8EEC00AA0
:1043F000B4EEC80AF1EE10FAEED300BFBCEEC80A64
:10440000296810EE100A0864BDEC028B70BDF8EE4E
:10441000C00AF4EEC80AF1EE10FA07DC11E0801BC6
:10442000A06129680864322000F04EF9A06900EE0E
:10443000100AB8EEC00AB4EEC80AF1EE10FAEEDCCB
:10444000DCE7B8EEC00AB4EE480AF1EE10FAD5D0B7
:10445000DAE700000080F743800100202C0B0020E9
:10446000D0E9013201699A60D0E901235A604A68B3
:10447000824201D182684A60002202610868401EBF
:104480000860086870470000034B036003F15C009C
:1044900008608020106070471C120020044B0360ED
:1044A00003F15C0008604FF48070106070470000FA
:1044B0007814002000F108014FF0FF32C0E901122A
:1044C000C1600161002101607047002101617047F6
:1044D00030B50B685A1C02D000F1080202E00269F4
:1044E00004E02246546825689D42FAD953684B601F
:1044F00099608A60516008610168491C016030BDA3
:1045000042684A6093688B60936859609160086163
:104510000168491C01607047502080F31188BFF387
:104520004F8FBFF36F8F0A494868401C48600128CD
:104530000CD10848006810F0FF0F07D0502080F31E
:104540001188BFF34F8FBFF36F8FFEE770470000F6
:104550005802002004ED00E00849486828B1401ED8
:10456000486001D180F311887047502080F3118892
:10457000BFF34F8FBFF36F8FFEE70000580200209C
:1045800070B500282AD0164DA0F10804606869694A
:10459000084207D1502080F31188BFF34F8FBFF33B
:1045A0006F8FFEE722683AB1502080F31188BFF385
:1045B0004F8FBFF36F8FFEE78843606000F030F9E4
:1045C00060686968084468602046FFF787FC2869CE
:1045D000401C2861BDE8704000F092BD70BD000035
:1045E000380200204FF0E02000210161816105497F
:1045F0004FF47A720968B1FBF2F1491E416107215B
:1046000001617047E001002010B5FBF79BFE1149E6
:1046100010280ED300F1E02090F8F0030A789042C1
:1046200007D2502080F31188BFF34F8FBFF36F8FF5
:10463000FEE709480068896800F4E060884207D90D
:10464000502080F31188BFF34F8FBFF36F8FFEE7C9
:1046500010BD0000580200200CED00E010B5084B22
:10466000002200BF53F832401CB1521C082AF9D373
:1046700010BD43F8321003EBC201486010BD0000CA
:10468000000C002070B515460E460446FFF744FFA7
:1046900094F944100020491C01D184F8440094F995
:1046A0004510491C01D184F84500FFF755FFA06B68
:1046B00028B92A46314604F1240000F051F820467A
:1046C000BDE87040FFF7B8BD10B5020014D00F4828
:1046D000006B38B1502080F31188BFF34F8FBFF3C8
:1046E0006F8FFEE700F09CF800211046FFF710FAEC
:1046F00000F006FD002807D105494FF08050086002
:10470000BFF34F8FBFF36F8F10BD0000E401002097
:1047100004ED00E002490A6A0260C968416070471E
:10472000E401002001490120C8617047E401002034
:1047300010B50C4650B1094909681831FFF7C8FE99
:104740002046BDE810400121FFF7E2B9502080F378
:104750001188BFF34F8FBFF36F8FFEE7E401002096
:1047600070B514460D4668B10A4909681831FFF75B
:10477000C7FE0CB14FF0FF3521462846BDE870401A
:10478000FFF7C6B9502080F31188BFF34F8FBFF3F6
:104790006F8FFEE7E401002030B587B0002403945A
:1047A00005AA04A903A80494FFF76EFEDDE903013E
:1047B0000094CDE90110002315A11748059A00F0D7
:1047C00084FB164D0028E8621FD000F0FBFC012896
:1047D00009D0401C19D1502080F31188BFF34F8FAE
:1047E000BFF36F8FFEE7502080F31188BFF34F8F28
:1047F000BFF36F8F4FF0FF30A86201206861EC605B
:1048000007B0BDE8304000F045B807B030BD00004B
:1048100049444C4500000000A93D0008E401002087
:104820000248016B491C016370470000E40100204D
:10483000164810B5016B11B10121C16110BD0021F5
:10484000C1610169124A01E0B9B1491E01EB81035E
:1048500052F82330002BF7D001EB810302EB8302E7
:1048600002F1080453685B685360A34201D15B689E
:104870005360DA680260016110BD502080F3118836
:10488000BFF34F8FBFF36F8FFEE70000E4010020FE
:10489000400C00201CB537480168374A914207D1C7
:1048A000502080F31188BFF34F8FBFF36F8FFEE767
:1048B00000683149491E884207D1502080F3118891
:1048C000BFF34F8FBFF36F8FFEE72C49087801903D
:1048D000FF20087008788DF800009DF800009DF812
:1048E000002000F0F000904207D0502080F31188A3
:1048F000BFF34F8FBFF36F8FFEE79DF80000204C92
:1049000000F0500020700720A06005E09DF8002016
:1049100052008DF80020401E9DF800201206F5D4AC
:10492000A060032807D0502080F31188BFF34F8F79
:10493000BFF36F8FFEE74FF44070A06001980870DE
:104940000C482030016841F470010160016841F0B9
:1049500070410160FFF746FE00206060FBF7BAFC83
:104960000848016841F040410160FBF79FFC0020CE
:104970001CBD000000ED00E071C20F4100E400E04A
:104980005802002034EF00E010B5502080F3118869
:10499000BFF34F8FBFF36F8F00F0D6FA18B1044901
:1049A0004FF080500860002080F3118810BD000097
:1049B00004ED00E038B5049D18B153B1CAB181B11E
:1049C00020E0502080F31188BFF34F8FBFF36F8F2B
:1049D000FEE7502080F31188BFF34F8FBFF36F8F36
:1049E000FEE7502080F31188BFF34F8FBFF36F8F26
:1049F000FEE739B1502080F31188BFF34F8FBFF32A
:104A00006F8FFEE750241C46012384F846302B4666
:104A10000094FFF7F9F9204638BD000070B50D4647
:104A2000040025D0FFF778FDD4E90F20216802FBB0
:104A30000011A1600021A163216861600A46D4E9E8
:104A40000F01401E00FB0121E16021464FF0FF30C5
:104A500001F8440F487004F110008DB1FFF72AFDF2
:104A600004F12400FFF726FDFFF776FD012070BD5D
:104A7000502080F31188BFF34F8FBFF36F8FFEE795
:104A800021690029F0D000F003FB0028ECD0044994
:104A90004FF080500860BFF34F8FBFF36F8FE3E795
:104AA00004ED00E02DE9FF4782B01D468A464FF035
:104AB0000008040003D0BAF1000F08D011E0502024
:104AC00080F31188BFF34F8FBFF36F8FFEE7206C29
:104AD00038B1502080F31188BFF34F8FBFF36F8F31
:104AE000FEE7022D0AD1E06B012807D0502080F3A9
:104AF0001188BFF34F8FBFF36F8FFEE700F010FAFE
:104B00003F4F4FF000094FF0805648B9049838B134
:104B1000502080F31188BFF34F8FBFF36F8FFEE7F4
:104B2000FFF7FAFCA06BE16B884207D3022D05D09A
:104B30000498D0B1B8F1000F1AD01EE02A465146B1
:104B40002046FFF7BAF8616A19B104F1240000F0B9
:104B50009FFA20B13E60BFF34F8FBFF36F8FFFF717
:104B6000FBFC012006B0BDE8F087FFF7F5FC22E072
:104B70006846FFF7CFFD4FF00108FFF7EDFCFFF7A8
:104B80004FFEFFF7C9FC94F94400401C01D184F8A2
:104B9000449094F94500401C01D184F84590FFF7FA
:104BA000DBFC04A9684600F029F930B12046FFF784
:104BB00043FB00F0A5FA0020D4E7FFF7ADFCA06BA3
:104BC000E16B884213D1FFF7C7FC04F11000049990
:104BD000FFF7AEFD2046FFF72FFB00F091FA00280B
:104BE0009ED13E60BFF34F8FBFF36F8F98E7FFF703
:104BF000B3FC2046FFF720FB00F082FA90E70000AC
:104C000004ED00E02DE9F0471F4690468946040078
:104C100003D0B9F1000F08D011E0502080F31188C3
:104C2000BFF34F8FBFF36F8FFEE7206C38B150207A
:104C300080F31188BFF34F8FBFF36F8FFEE7022F12
:104C40000AD1E06B012807D0502080F31188BFF310
:104C50004F8FBFF36F8FFEE7FFF7D6FC5020EFF3C7
:104C6000118680F31188BFF34F8FBFF36F8FA06B56
:104C7000E16B884206D3022F04D0002086F311880E
:104C8000BDE8F08794F94550A06B3A464946204666
:104C9000FFF713F8681C04D06D1C84F84550012000
:104CA000ECE7606A0028FAD004F1240000F0F0F983
:104CB0000028F4D0B8F1000FF1D00121C8F800109D
:104CC000EDE700002DE9F747002683B08A4604008F
:104CD00003D0BAF1000F08D011E0502080F3118802
:104CE000BFF34F8FBFF36F8FFEE7206C38B15020BA
:104CF00080F31188BFF34F8FBFF36F8FFEE700F093
:104D00000FF9DFF8F4804FF000094FF0805748B9F1
:104D1000059838B1502080F31188BFF34F8FBFF34F
:104D20006F8FFEE7FFF7F8FBA56BC5B15146204634
:104D3000FEF7B0FF6D1EA563206950B104F11000AD
:104D400000F0A6F928B1C8F80070BFF34F8FBFF389
:104D50006F8FFFF701FC012006B0BDE8F0870598D2
:104D600008B11EB106E0FFF7F7FB27E06846FFF742
:104D7000D1FC0126FFF7F0FBFFF752FDFFF7CCFB5C
:104D800094F94400401C01D184F8449094F9450002
:104D9000401C01D184F84590FFF7DEFB05A9684669
:104DA00000F02CF8002820460AD0FFF745FA00F062
:104DB000A7F92046FFF7D4F80028B3D00020CBE7AE
:104DC000FFF7CEF890B104F124000599FFF7B0FC8D
:104DD0002046FFF731FA00F093F90028A2D1C8F875
:104DE0000070BFF34F8FBFF36F8F9BE72046FFF735
:104DF00023FA00F085F995E704ED00E02DE9F04194
:104E00000C46050011D0C4B1FFF786FB174BDA68DA
:104E10006E682068911B471C17D02F681B6A9F4241
:104E200019D0964217D8012410E0502080F3118841
:104E3000BFF34F8FBFF36F8FFEE7502080F31188D1
:104E4000BFF34F8FBFF36F8FFEE70024FFF784FBA4
:104E50002046BDE8F081884205D9401A20602846E6
:104E6000FFF758FCF1E700202060DCE7E4010020B8
:104E70002DE9FF5F8346DDE90E87994616468A468F
:104E80009000FFF70FFA05001CD05C20FFF70AFA2C
:104E9000040014D00020256384F85900CDE90240B5
:104EA000CDE900874B46324651465846FEF7BEFFD5
:104EB0002046FEF75BFE012004B0BDE8F09F2846C7
:104EC000FFF75EFB4FF0FF30F6E7F0B585B0DDE9A8
:104ED0000B640A9DA6B1DCB15C270097266302260D
:104EE00084F85960002604AFCDE90246CDE90057A9
:104EF000FEF79CFF2046FEF739FE049805B0F0BD92
:104F0000502080F31188BFF34F8FBFF36F8FFEE700
:104F1000502080F31188BFF34F8FBFF36F8FFEE7F0
:104F20000548416919B1006B18B100207047012094
:104F30007047022070470000E40100200148C0686B
:104F400070470000E40100202DE9F0412E4C0027BD
:104F5000206B28B1A069401CA0613846BDE8F081F3
:104F6000E668761CE66013D1606B006838B15020AB
:104F700080F31188BFF34F8FBFF36F8FFEE7606B35
:104F8000A16B6163A063206A401C2062FFF7D4F824
:104F9000A06ADFF87880864209D3606B0068A0B110
:104FA000606BC068C5686868864211D2A0622068DC
:104FB000C06A00EB800158F82100012800D90127C0
:104FC000E0690028C9D00127C7E74FF0FF30EDE7BF
:104FD000281DFFF745FAA86A18B105F11800FFF778
:104FE0003FFAE86A2169884200D9206100EB80011C
:104FF00008EB8100291DFFF783FAE86A2168C96A76
:105000008842CAD30127C8E7E4010020400C0020F1
:1050100070B504004FF0000133D01B4D2868844266
:1050200007D0502080F31188BFF34F8FBFF36F8FED
:10503000FEE7206D38B1401E2065E36CE26A9A42BB
:105040001FD040B11DE0502080F31188BFF34F8F77
:10505000BFF36F8FFEE7201DFFF702FAE06CE062FE
:10506000C0F13800A061E06A2969884200D928614E
:10507000064900EB800001EB8000211DFFF740FA9C
:105080000121084670BD0000E4010020400C002012
:1050900070B5C068C46854B104F118000646FFF743
:1050A000DFF9144D286B50B13146134815E05020FC
:1050B00080F31188BFF34F8FBFF36F8FFEE7201D82
:1050C000FFF7CEF9E06A2969884200D928610B49C7
:1050D00000EB800001EB8000211DFFF711FAE06A70
:1050E0002968C96A884202D90120E86170BD0020A0
:1050F00070BD0000E4010020C8100020400C00201A
:105100002DE9F0472C4D00242746286B38B1FFF7D6
:1051100003FA286B401E2863286B40B146E05020FC
:1051200080F31188BFF34F8FBFF36F8FFEE7A9683D
:10513000224E0120D1B3A6F5916980463068E0B1D6
:10514000F068C46804F11800FFF78AF9201DFFF722
:1051500087F9E06A2969884200D9286100EB80015B
:1051600009EB8100211DFFF7CBF9E06A2968C96AC4
:105170008842E3D3C5F81C80E0E70CB1FEF7DCFF02
:10518000AC694CB14FEA0806FFF7DEFE00B1EE61F4
:10519000641EF9D10020A861E86938B108490127E7
:1051A00038070860BFF34F8FBFF36F8FFFF7D4F955
:1051B0003846BDE8F0870000E4010020C810002058
:1051C00004ED00E010B586B0FEF738FD114C206804
:1051D000B8B100200390049005AA04A903A8FFF722
:1051E0005DF9DDE9032102208DE8070000230AA113
:1051F0000B48059AFFF769FE606010B106B0012008
:1052000010BD502080F31188BFF34F8FBFF36F8F15
:10521000FEE7000020020020546D722053766300E8
:10522000154200082DE9FF411E46134602000A9D63
:105230004FF0000016D0144C2768002F0FD0CDE996
:1052400000130292062917DAFFF76AFE02284FF0D0
:1052500000030FD0002269462068FFF723FC04B04A
:10526000BDE8F081502080F31188BFF34F8FBFF36A
:105270006F8FFEE72A46EEE700233246694638463E
:10528000FFF7C0FCEBE700002002002081F00041A6
:10529000704780F00040704721F00041704720F0D7
:1052A0000040704710B591EA030F48BF83F00043F8
:1052B00000F1C283841A71EB030C05D2121943EB7F
:1052C0000C03001B61EB0C01DFF824E14FEA1154E1
:1052D000A4EB135C1EEA430F18BF9EEA445F73D031
:1052E00023EA0E03DCF1200E21EA045143F480137B
:1052F00032D322FA0CFE10EB0E0023FA0CFE41EB27
:105300000E01CCF1200E03FA0EFE10EB0E0051F14F
:105310000001B1F5801FCCF1200E32D201EB045117
:1053200012FA0EF2BDE8104058BF7047401C38BF5B
:105330005FEA420218BF7047002814BF20F0010046
:1053400041F100014FEA410313F5001F38BF7047D8
:10535000A1F1C04100F02CBB012A43EB0302ACF1E8
:10536000200CDCF11F0E32BF4FF0000E23FA0CF3BD
:1053700010EB030041EB0451B4EB115FD0D0A1EB73
:10538000045101F5801149085FEA300001EB045136
:105390000ED350F1000038BF12FA0EFE08D1BDE85E
:1053A0001040C9E7401C38BF5FEA4202CAD1C3E7D8
:1053B000BDE810404FEA410313F5001F38BF7047A6
:1053C000A1F1C04100F0F4BA9EEA445F08D011EAAE
:1053D0005E0FBDE8104004BF01F00041002070479F
:1053E000BDE8104070B500F095FA00BF64FBBE3E0A
:1053F0000000E0FF491058BFC1F140415B1058BFA9
:10540000C3F140438B42EFF3008070472DE9C04168
:1054100030B4DFF8A0C23CEA111418BF3CEA131400
:1054200000F0EC8081EA03051CEA111444EAD5740B
:1054300018BF1CEA131500F0C780A4EB05044FF059
:10544000004545EAC12145EAC32341EA505143EAF8
:10545000525304F17F74994204F500344FEAC0209E
:105460004FEAC22208BF904200F09C804FEA1365C9
:105470000FF24016765D4FEA134506FB05F7C7F1BC
:10548000807706FB07F74FEAD737A7FB036876421A
:10549000C8F58038A7FB06CE38BFA8F1010807FB86
:1054A00008E64FF0000EA6FB028CE6FB03CEDCF113
:1054B000000CCEF1004E38BFAEF1010EA6FB0C5829
:1054C0004FF000074FF00005E6FB0E87A1FB08C672
:1054D000A0FB07CE16EB0E0645F10005E1FB0765C4
:1054E00015F1E04E7EBFA4F580345FEA46066D41BB
:1054F00016F1800745F100054FEA17274FEA0666C7
:1055000047EA0567A6F1DE46B6F1805F4FEA15254A
:105510001FD9384624F0010C05EBC471BCF1FE6FB5
:1055200001EB0C1102D8F0BCBDE8008124425CBF45
:1055300001F5801E9EEAC47F02D4F0BCBDE8008164
:10554000244238D4F0BCA1F1C041BDE8004100F0D4
:105550002FBA4FEAD22242EA43524FEAD323A7FBA3
:1055600002864FEAD02040EA415007FB03661EEA5C
:105570000E0F4FEAD12105FB026658BFA6EB00567D
:10558000B6EB00564FEA520E4EEAC37E18EB0E0EF3
:1055900056EB530EBDD518EB02085E417F1C55F14A
:1055A0000005B6E74FF480154FF000074FF00006F6
:1055B0004FF00008ADE7F0BC4FF0000001F1C04132
:1055C00001F00041BDE8008111EA0C1F0CEA13153F
:1055D00000D00CE013EA0C1F00F025804FF0000013
:1055E000F0BC81EA030101F00041BDE80081F0BC9C
:1055F000BDE8004181EA030100F0DAB9F0BCBDE882
:10560000004170B500F086F9097EFC3E00F007B855
:1056100081EA03014FF0000001F00041704781EA88
:10562000030100F0C5B9F0BCBDE800414FF0000037
:1056300021497047FFFDFBF9F7F5F4F2F0EEEDEBD1
:10564000E9E8E6E4E3E1E0DEDDDBDAD8D7D5D4D380
:10565000D1D0CFCDCCCBCAC8C7C6C5C4C2C1C0BFCC
:10566000BEBDBCBBBAB9B8B7B6B5B4B3B2B1B0AFD2
:10567000AEADACABAAA9A8A8A7A6A5A4A3A3A2A1B6
:10568000A09F9F9E9D9C9C9B9A9999989797969571
:1056900095949393929191908F8F8E8E8D8C8C8B0D
:1056A0008B8A898988888787868585848483838295
:1056B000828181800000FF070000F87F4FEA4103EC
:1056C0004FEA5353A3F58063D3F11E03C8BFD3F150
:1056D000210C0CDD4FF0004242EAC12242EA505256
:1056E00032FA03FC8CEAE17CACEBE1707047102BE2
:1056F000C4BF0020704703F5787CBCF1FF3F04D0A5
:105700006FF0004282EA2100704770B500F002F9A4
:105710004992248000207047F2E710F0004248BF11
:105720004042B0FA80F310FA03F10AD0C3F11D032E
:1057300003F580634FEA415002EB035202EBD121A3
:1057400070474FF00000704751EA030C17D41CF566
:10575000801F58BFBCF5801F00F10680994218BF1A
:10576000704708BF9042704707D711F5801F58BF98
:1057700013F5801F19D499427047894270471CF570
:10578000801F08D5BCF5801FF7D58B4218BF704726
:1057900008BF824270474FF4001C1CEB410F38BF1A
:1057A0001CEB430F01D28B42704770B500F0B2F88A
:1057B000922449004FF000514FF08053FFF71ABE7A
:1057C000DFF848C170B51CEA111E1EBF1CEA131594
:1057D0009EEA0C0F95EA0C0F00F06F8081EA03043B
:1057E00023EA4C134EEAD47E21EA4C1141F4801195
:1057F00043F48013AE44A1FB024CA0FB0365AEF161
:105800007F7E361955EB0C05A1FB034C4CF10003D0
:10581000A0FB021C16EB0C06654153F10003094284
:1058200018BF46F0010613F4007F0BD14FEA033195
:105830004FEA0530340341EA155140EA16506FF043
:1058400003020AE04FEAC3214FEAC520F40241EA0D
:10585000555140EA56506FF0020202EB2E4201EB26
:10586000025585EACE710AD05FEA440C18BF24F0D5
:10587000004450F1000041F1000120EAD47040F2F0
:10588000FE7C624500D270BDA84214BF4FF0804438
:105890004FF04044002E08BF0024BEF1806FA8BF27
:1058A000A1F1C041BDE8704080F282804FF000005D
:1058B00001F1C04101F0004170479EEA0C0F0CEA73
:1058C000131518BF95EA0C0F06D04FF0000081EABF
:1058D000030E0EF0004170BD00F01CF88900013E7F
:1058E00000F007B800F009B84FEA430C5FEA5C5CCF
:1058F00008D081EA030100F05BB84FEA410C5FEA8F
:105900005C5CF6D14FF00000014970470000FF07D2
:105910000000F87F0EF1020E2EF0030E5EF8046B0D
:10592000364205D4012A43EB030515F5001F12D8B2
:10593000012841EB010C1CF5001F0CD80ED14FEAD9
:10594000D17C15F5001F0CEB4C0C0CF1020C08BFC0
:105950004CEBD37C04E04FF0080C01E04FEAD37C21
:105960000CEB4C0526FA05F606F00706B6F1040C1A
:1059700006D20EEB860CBDE870404CF0010C60477F
:10598000DFE80CF0090B02024FF000414FF000007D
:10599000A1F5002170BD19461046012851EB010404
:1059A00018BFD4F5001484BF002001F0004170BD81
:1059B0000808A0F500114FEA3101704753EA010CC5
:1059C00017D41CF5801F58BFBCF5801F00F106805E
:1059D0008B4218BF704708BF8242704707D713F544
:1059E000801F58BF11F5801F19D48B4270479B420E
:1059F00070471CF5801F08D5BCF5801FF7D599426C
:105A000018BF704708BF904270474FF4001C1CEB52
:105A1000430F38BF1CEB410F01D2994270470FB4BE
:105A20000CBC03BCFFF7C1BE10B591EA030F48BF21
:105A300083F000433FF53EAC841A71EB030C07D2B0
:105A400012198CF0004C43EB0C03001B61EB0C01B2
:105A5000DFF8A4E14FEA1154A4EB135C1EEA430FF4
:105A600018BF9EEA445F00F0B08023EA6E03524202
:105A700021EA0451C3EB6E0338BF5B1EDCF1200E3C
:105A800025D322FA0CFE10EB0E0043FA0CFE41EB7C
:105A90000E01CCF1200E03FA0EFE10EB0E0051F1B8
:105AA0000001CCF1200E29D412FA0EF201EB0451C0
:105AB000BDE8104058BF7047401C1CBFB2F1004FFA
:105AC000704700280CBF491C20F00100704712EB02
:105AD000020E43EB030218BF4FF0010E4EEA4202E2
